:10000000F3EF0EF00000000000EF00F00000000031
:0A0010000000000000000000F3D71C
:08001C000AAE029E000E120064
:100024000B820BAE1CEF00F00368026801680068E5
:080034000A360232FF0E120031
:0E003C00026A016A006A086A036A000E120076
:10004A000B840BAE30EF00F0010E036E026A016AF8
:0A005A00006A0A360232FF0E12009F
:100064000CB074EF00F00CA21AEF01F00E6A000E4F
:1000740002648BEF00F0F00E0214D8A456EF00F0E7
:10008400023A01380F0B02260138F00B016E0038DA
:100094000F0B01260038F00B006E08380F0B0026FA
:1000A4000838F00B086E0E84D89002BE6FEF00F093
:1000B40008360036013602360E2A02BE6FEF00F013
:1000C40008360036013602360E2A02BE6FEF00F003
:1000D40008360036013602360E2A0E50036410EF3D
:1000E40001F0035E0BBC08AE15EF01F0D880800E62
:1000F40008640030000E002201220222D8A015EF6D
:1001040001F0023201320032034A1AEF01F015EF16
:1001140001F001C002F000C001F008C000F0086A5C
:10012400000E0E860264C2EF00F0F00E0214D8A492
:10013400AAEF00F0023A01380F0B02260138F00B47
:10014400016E00380F0B01260038F00B006E0E8490
:10015400D89002BE6FEF00F00036013602360E2A48
:1001640002BE6FEF00F00036013602360E2A02BEE0
:100174006FEF00F00036013602360E2A6FEF00F002
:1001840001C002F000C001F0006A000E0E960E8855
:100194000264EFEF00F0F00E0214D8A4DAEF00F0DE
:1001A400023A01380F0B02260138F00B016E0E845F
:1001B400D89002BE6FEF00F0013602360E2A02BE5E
:1001C4006FEF00F0013602360E2A02BE6FEF00F028
:1001D400013602360E2A6FEF00F001C002F0016A08
:1001E400000E0E8602641FEF01F0F00E0214D8A474
:1001F400FEEF00F0023A0E84D89002BE6FEF00F0DA
:1002040002360E2A02BE6FEF00F002360E2A02BE3C
:100214006FEF00F002360E2A6FEF00F0010E0C6E45
:1002240012DF22EF01F0020E0C6EF6DE22EF01F077
:10023400040E0C6EF5DE22EF01F0080E0C6EFCDEEF
:020244001200A6
:10024600025006180E6E086A096A0B6A03500764A4
:1002560016EF02F006500A6E068E028E03500B6EE3
:100266000750036E000E0B6466EF01F00B50075E3D
:10027600D8B407EF02F0070E0764D5EF01F0075E6A
:1002860000C008F001C000F002C001F0026A074E8B
:1002960007EF02F00764AAEF01F0075E00C008F05E
:1002A60001C000F0016A074E07EF02F0076488EF0D
:1002B60001F0075E00C008F0006A074E07EF02F083
:1002C60007646FEF01F00AC002F005C001F004C038
:1002D60000F0086A30EF03F0030E07647AEF01F0CE
:1002E600075E08380F0B086E074E07EF02F0D8902E
:1002F6000832074E07EF02F0D8900832074E07EF94
:1003060002F0D890083207EF02F0030E076499EF67
:1003160001F0075E08380F0B086E0038F00B082650
:1003260000380F0B006E074E07EF02F0D890003230
:100336000832074E07EF02F0D89000320832074E17
:1003460007EF02F0D8900032083207EF02F0030EF2
:100356000764C1EF01F0075E08380F0B086E00381E
:10036600F00B082600380F0B006E0138F00B002644
:1003760001380F0B016E074E07EF02F0D8900132DD
:1003860000320832074E07EF02F0D89001320032F1
:100396000832074E07EF02F0D890013200320832D9
:1003A60007EF02F0030E0764F2EF01F0075E08386C
:1003B6000F0B086E0038F00B082600380F0B006E86
:1003C6000138F00B002601380F0B016E0238F00BD6
:1003D600012602380F0B026E074E07EF02F0D89087
:1003E6000232013200320832074E07EF02F0D8908F
:1003F6000232013200320832074E07EF02F0D8907F
:100406000232013200320832096A000E0EAEFBEFEC
:1004160002F0081E001E011E021E082A00220122EA
:100426000222FBEF02F00750D8A41CEF02F030EFD7
:1004360003F0096A02C00AF0028E068E0750035CBA
:10044600076ED8B4EEEF02F0070E0764BCEF02F0B9
:10045600075E0450096E0550046E0650056E066A66
:10046600074EEEEF02F0070E076491EF02F0075E0B
:100476000450096E0550046E056A074EEEEF02F051
:10048600070E07646FEF02F0075E0450096E046AF8
:10049600074EEEEF02F0070E076456EF02F00AC0B1
:1004A60002F030EF03F0030E076461EF02F0075E1F
:1004B60009380F0B096E074EEEEF02F0D89009329D
:1004C600074EEEEF02F0D8900932074EEEEF02F03B
:1004D600D8900932EEEF02F0030E076480EF02F0C7
:1004E600075E09380F0B096E0438F00B092604382D
:1004F6000F0B046E074EEEEF02F0D890043209326D
:10050600074EEEEF02F0D89004320932074EEEEFB6
:1005160002F0D89004320932EEEF02F0030E0764BF
:10052600A8EF02F0075E09380F0B096E0438F00BCE
:10053600092604380F0B046E0538F00B042605381F
:100546000F0B056E074EEEEF02F0D890053204321F
:100556000932074EEEEF02F0D89005320432093226
:10056600074EEEEF02F0D890053204320932EEEF74
:1005760002F0030E0764D9EF02F0075E09380F0B8D
:10058600096E0438F00B092604380F0B046E053883
:10059600F00B042605380F0B056E0638F00B052602
:1005A60006380F0B066E074EEEEF02F0D8900632B5
:1005B600053204320932074EEEEF02F0D8900632C9
:1005C600053204320932074EEEEF02F0D8900632B9
:1005D600053204320932086A000E0EAEFBEF02F055
:1005E600091E041E051E061E092A042205220622CD
:1005F6000950082604500022055001220650022206
:100606000EBE12EF03F0D8A021EF03F00232013242
:1006160000320832033E21EF03F02BEF03F0D8B08F
:1006260026EF03F0000E081E001E011E021E082AF9
:100636000022012202220A7E26EF03F0010E0C6E32
:100646000EDD32EF03F0020E0C6E09DD32EF03F021
:10065600040E0C6EE4DC32EF03F0000E0C6E12009A
:100666000B800BAE3FEF03F0026A0AAEFF0E026E7E
:0C067600016E006E0A360232FF0E120008
:100682000A6A0350D8A40A800750D8A40A820A50E2
:10069200D8B4A4EF03F0030AD8B45DEF03F00AB0B4
:1006A20058EF03F006AEA2EF03F0A0EF03F002AEA4
:1006B200A0EF03F0A2EF03F00250800B0A6E029E3D
:1006C2000650800B069E0A18D8B46EEF03F00A504B
:1006D200D8B4A0EF03F0A2EF03F00750035CD8B444
:1006E20078EF03F0D8A094EF03F09AEF03F00650EE
:1006F200025CD8B482EF03F0D8A094EF03F09AEF33
:1007020003F00550015CD8B48CEF03F0D8A094EF4D
:1007120003F09AEF03F00450005CD8B4A4EF03F0A6
:10072200D8B09AEF03F00A52D8B4A2EF03F0A0EFC8
:1007320003F00A52D8B4A0EF03F0A2EF03F0D8807E
:0E0742001200D8901200D880D8841200120045
:100750000C6A0E6A0250D8A4C1EF03F001C002F087
:1007600000C001F0006A0E860250D8A4C1EF03F069
:1007700001C002F0016A0E960E880250D8B4D3EF81
:1007800003F00E50035ED8A4D8A0D8EF03F0D890A1
:1007900002BEDDEF03F0003601360236032EC8EF4D
:1007A00003F0D8EF03F0010E0C6E48DCE0EF03F02D
:1007B000020E0C6E4ADCE0EF03F0040E0C6E2EDC31
:0207C000120025
:1007C200086A096A000E0762036466EF04F00250C9
:1007D20006180A6E075003267E0ED8A0F7EF03F024
:1007E200035ED8B06BEF04F0FBEF03F0035ED8A01A
:1007F20070EF04F0028E068E02C00EF001C00BF004
:1008020000C00DF000500402F4CF0CF001500502BC
:10081200F4CF00F0F3CF08F00402F3500C26F450AA
:100822000822000E00220D500502F3500C26F4504F
:100832000822000E002202500402F3500826F4504F
:10084200002202500502016A000E0122F350002626
:10085200F45001220D500602F3500826F4500022F3
:10086200026A000E012202220B500602F3500026F9
:10087200F4500122000E02220E500602F35001260D
:10088200F450022202BE4EEF04F008360036013662
:1008920002360306D8B470EF04F061EF04F0D8809A
:1008A200800E08640030000E002201220222D8A02D
:1008B20061EF04F0023201320032034A6BEF04F0BE
:1008C2000AAE029E000E73EF04F0010E1EEC00F061
:1008D20073EF04F0020E12EC00F073EF04F0040E5A
:0608E20025EC00F01200FD
:0608E800067EADDC1200EB
:1008EE000050086E0150006E0250016E0350026EF1
:1008FE00036A0B6A0C6A9E0E036E0A6A02AE94EFCE
:10090E0004F0081E001E011E021E082AD8B4002A7A
:10091E00D8B4012AD8B4022A0A8E020E0C6E32EC1A
:04092E0000F01200C3
:100932000B6A0C6A086A0350D8B41DEF05F002C0B6
:100942000AF0028E9E0E035E03AE0DEF05F0036CFD
:10095200080E035CD8A0DAEF04F0036E083600C07C
:1009620008F001C000F002C001F0026A080E035C48
:10097200D8A0DAEF04F0036E083600C008F001C018
:1009820000F0016A080E035CD8A0DAEF04F0036EEF
:10099200083600C008F0006A080E035CD8A0DAEF3F
:1009A20004F0036E0836086A0350D8A4D890E6EF24
:1009B20004F00350D8B4E6EF04F0D89002320132CA
:1009C20000320832032EDEEF04F00BBC08A0F7EF72
:1009D20004F0D8A0F7EF04F0082AD8B4002AD8B45B
:1009E200012AD8B4022A02BE21EF05F00AAE1DEF99
:1009F20005F0021E011E001E081E082AD8B4002A95
:100A0200D8B4012AD8B4022A1DEF05F0026A016A9D
:100A1200006A086A1DEF05F00B800BAE27EF05F0A8
:100A2200026A0AAE27EF05F0026E016E006E086ED2
:100A32000A36023227EF05F00C6A000E28EF05F0A5
:100A4200010E0C6E000E0EDE28EF05F0FF0E0250B6
:100A5200036E0150026E0050016E0850006E1200CB
:080A62000B6A0B86FF0E120067
:100A6A000B6A0350D8B47BEF05F002500A6E028E6F
:100A7A008E0E035E03AE7FEF05F0036C080E035C77
:100A8A00D8A05AEF05F0036E013602C001F0026ADF
:100A9A00080E035CD8A05AEF05F0036E0136016A0E
:100AAA000350D8A4D89064EF05F00350D8B464EF8B
:100ABA0005F0D89002320132032E5EEF05F00BBC2E
:100ACA0001A071EF05F0D8A071EF05F0012AD8B4A2
:100ADA00022A02BE8EEF05F00AAE93EF05F0021E5F
:100AEA00011E012AD8B4022A93EF05F0026A016AAC
:100AFA0093EF05F00B800BAE97EF05F0026A0AAE92
:100B0A0097EF05F0FF0E026E016E0A36023297EF7A
:100B1A0005F0010E0C6EA2DD99EF05F0000E0C6EC9
:100B2A0099EF05F0FF0E0C6E0150006E0250016E37
:020B3A001200A7
:100B3C00C7B409D01F0EC514016E0150000A03E1A1
:0A0B4C00010E006E01D0006A1200D5
:100B560000C008F00150006E016A026A036A0B6A5F
:100B66000C6A016A026A036A960E036E0A6A00AE8E
:100B7600C3EF05F0081E001E082AD8B4002A0A8E04
:100B860000C001F008C000F0086A026ADEDD12004B
:100B9600CBC000F0016A026A036AFF0E0016000E5F
:100BA600011600C0D0F001C0D1F07F0E005C026ECD
:100BB600000E0158036E02C0D0F003C0D1F0800EC3
:100BC6000318006E800E005C02E1000E025C21E25A
:100BD600046A056A066A076AC8C000F0C9C001F05F
:100BE600CAC002F0CBC003F049DD010ED8B0000E3A
:100BF600006E005209E0000E006E000E016E800EBF
:100C0600026E7F0E036E58D0006A016A026A036A9A
:100C160053D00001D151000802E1D051180809E271
:100C2600C8C000F0C9C001F0CAC002F0CBC003F0D2
:100C360043D0C8C000F0C9C001F0CAC002F0CBC0A2
:100C460003F074DE51DE00C0CCF001C0CDF002C06E
:100C5600CEF003C0CFF000C004F001C005F002C022
:100C660006F003C007F0C8C000F0C9C001F0CAC052
:100C760002F0CBC003F002DD010ED8B0000E006E0C
:100C8600005212E0000E046E000E056E000E066E97
:100C96007F0E076ECCC000F0CDC001F0CEC002F0D2
:100CA600CFC003F01EDE08D0CCC000F0CDC001F0EE
:0A0CB600CEC002F0CFC003F0120020
:100CC0000450000A12E10550000A0FE10650000A24
:100CD0000CE10750000A09E1FF0E006EFF0E016EE5
:100CE0007F0E026EFF0E036EA7D0086A096A0750D6
:100CF000D8B40BEF07F00350D8B40FEF07F0025051
:100D000006180A6E028E068E0E6A02C008F001C036
:100D10000CF000C00DF004500D5E0550D8A0053C4D
:100D20000C5E0650D8A0063C085E086A0C6A0D6A84
:100D3000D8A0A2EF06F0D890023201320032083279
:100D4000010E0E6E0750035ED8A0AFEF06F07E0EC8
:100D50000E240326D8B014EF07F0B5EF06F07E0E90
:100D60000E240326D8A019EF07F0180E0B6E0D36CF
:100D70000C3608360036013602360E360450005E58
:100D80000550D8A0053C015E0650D8A0063C025E86
:100D900006340E120EA0D0EF06F00D80DBEF06F049
:100DA000045000260550D8B0053C01260650D8B0A6
:100DB000062802260D900B2EB7EF06F001EF07F084
:100DC000D8900036013602360E360450005E0550CB
:100DD000D8A0053C015E0650D8A0063C025E063451
:100DE0000E10010B0D26D8B00C2AD8B4082AD8A4AE
:100DF00001EF07F008320C320D32032AD8B414EF99
:100E000007F00AAE089E0850026E0C50016E0D509D
:100E1000006E1CEF07F0010E24DE1CEF07F0020E3F
:100E20001EEC00F01CEF07F0040E12EC00F01CEFBB
:0A0E300007F0080E25EC00F0120098
:100E3A0003500718D8A431EF07F002500618D8A4B7
:100E4A0031EF07F001500518D8A431EF07F0005030
:0E0E5A000418D8B4D8841200D89412001200E4
:100E6800C80E0001CE6F000ECF6F030ECE25D96ECF
:100E7800000ECF21DA6EDE50CC25016E000ECD219A
:100E8800026E01C0CCF002C0CDF0800E0218006ED8
:100E9800800E005C02E1000E015C05E2006A016A56
:100EA800026A036A3FD0800E006E800ECD19005C86
:100EB80002E1CC51FF0826E2046A056A066A076A5D
:100EC800C8C000F0C9C001F0CAC002F0CBC003F02E
:100ED80041EC03F0010ED8B0000E006E005209E09C
:100EE800FF0E006EFF0E016EFF0E026EFF0E036E08
:100EF80019D0FF0E006EFF0E016E7F0E026EFF0E00
:100F0800036E10D0030ECE25E16E000ECF21E26EE7
:100F1800CCC0E6FFC8C000F0C9C001F0CAC002F0EA
:060F2800CBC003F0120033
:100F2E00C80E046E000E056E030E0424E96E000E4C
:100F3E000520EA6E7E0EEE5C006E016A000E015A0E
:100F4E00CCC0E1FFCDC0E2FF00C0E6FF01C0E6FF6E
:100F5E00030E0424E16E000E0520E26E7E0EE66E98
:100F6E00C8C000F0C9C001F0CAC002F0CBC003F087
:020F7E0012005F
:100F8000CFC000F0D0C001F0000E0001D0BFFF0EB6
:100F9000026E036E003600900136023603360036CC
:100FA0000090013602360336CC510024F66ECD5146
:100FB0000120F76ECE510220F86E0900F5CFD1F076
:100FC0000900F5CFD2F00900F5CFD3F00900F5CF35
:100FD000D4F0CF51D01149E0C8C000F0C9C001F031
:100FE000CAC002F0CBC003F0D1C004F0D2C005F0FB
:100FF000D3C006F0D4C007F0E1EC03F0010ECF5FE0
:10100000000ED05BCFC004F0D0C005F0000ED0BF02
:10101000FF0E066E076E0436049005360636073658
:1010200004360490053606360736CC510424F66E95
:10103000CD510520F76ECE510620F86E0900F5CF90
:1010400004F00900F5CF05F00900F5CF06F009001E
:10105000F5CF07F023EC01F000C0D1F001C0D2F0D1
:1010600002C0D3F003C0D4F0B4D7D1C000F0D2C0D6
:0C10700001F0D3C002F0D4C003F0120065
:10107C00F250026EF29E0500FF6A0150FE6E0050A7
:08108C00FD6E02BEF28E12009F
:10109400BEC004F0BFC005F0C0C006F0C1C007F078
:1010A400006A016A026A036A41EC03F0000ED8B0D8
:1010B400010E006E005205E0006A016A026A036ACA
:1010C4006AD0BEC0C8F0BFC0C9F0C0C0CAF0C1C0B9
:1010D400CBF0C20E0001CC6F000ECD6F26DF000EE8
:1010E400046E000E056E000E066E800E076EE1ECB7
:1010F40003F0000E046E000E056E000E066E7F0EE9
:10110400076E74EC04F000C0BEF001C0BFF002C072
:10111400C0F003C0C1F0010EC25F000EC35B00C08B
:10112400C8F001C0C9F002C0CAF003C0CBF0C80EB9
:10113400CC6F1F0ECD6F000ECE6F080ECF6F000E5A
:10114400D06F1CDF00C0C4F001C0C5F002C0C6F0FF
:1011540003C0C7F0C4C0BEF0C5C0BFF0C6C0C0F075
:10116400C7C0C1F0C2C000F0C3C001F0F2DC180E69
:10117400046E720E056E310E066E7E0E076EE1EC85
:1011840003F0C4C004F0C5C005F0C6C006F0C7C073
:0811940007F023EC01F012004A
:10119C0015C0C0F016C0C1F017C0C2F018C0C3F023
:1011AC000001BE6BBF6BBF51120802E1BE518E082D
:1011BC0008E3BEDC005201E004D00001BE4BBF2BA3
:1011CC00F2D70001120EBF5D02E18F0EBE5D03E38C
:1011DC007B0E006E24D0C580C5A020D015501610F3
:1011EC00171018101AE0C051C111C211C3110EE131
:1011FC0055C0E1FF56C0E2FF050EE66E53C000F08D
:10120C0054C001F035DF010E006E09D0010E000153
:10121C00C05F000EC15BC25BC35BDED7006A12000D
:10122C009E96BEC0C9FF15C0BFF016C0C0F017C057
:10123C00C1F018C0C2F0C7A421D015501610171059
:10124C0018101BE00001BF51C011C111C2110EE1F9
:10125C0055C0E1FF56C0E2FF040EE66E53C000F02D
:10126C0054C001F005DF010E006E3AD0010E0001F2
:10127C00BF5F000EC05BC15BC25BDDD715C0BFF0AA
:10128C0016C0C0F017C0C1F018C0C2F09EB621D075
:10129C0015501610171018101BE00001BF51C0118B
:1012AC00C111C2110EE155C0E1FF56C0E2FF040EA0
:1012BC00E66E53C000F054C001F0DADE010E006E91
:1012CC000FD0010E0001BF5F000EC05BC15BC25BA3
:1012DC00DDD7C5BC02D0006A03D0C584020E006EF7
:0212EC001200EE
:1012EE00046A056A066A076ABEC000F0BFC001F054
:1012FE00C0C002F0C1C003F099DD010ED8A4000EEB
:10130E00006E005209E0000E006E000E016E000E1F
:10131E00026E7F0E036EFED0BEC004F0BFC005F09D
:10132E00C0C006F0C1C007F0FC0E006ED40E016EF8
:10133E00320E026E850E036E41EC03F0010ED8B034
:10134E00000E006E005209E0FF0E006EFF0E016EE1
:10135E007F0E026EFF0E036EDDD04F0E046EAC0ECE
:10136E00056EAE0E066E850E076EBEC000F0BFC0D7
:10137E0001F0C0C002F0C1C003F041EC03F0010E59
:10138E00D8B0000E006E005205E0006A016A026AD3
:10139E00036AC0D0046A056A066A076ABEC000F016
:1013AE00BFC001F0C0C002F0C1C003F041EC03F0B9
:1013BE00010ED8B0000E006E00C0C4F0005202E064
:1013CE000001C07FBEC000F0BFC001F0C0C002F07F
:1013DE00C1C003F03B0E046EAA0E056E380E066EEB
:1013EE007F0E076EE1EC03F000C0BEF001C0BFF04F
:1013FE0002C0C0F003C0C1F000C0C8F001C0C9F007
:10140E0002C0CAF003C0CBF0CBEC05F035EC05F012
:10141E0000C0C2F001C0C3F0ABEC05F000C004F098
:10142E0001C005F002C006F003C007F0BEC000F018
:10143E00BFC001F0C0C002F0C1C003F074EC04F0F4
:10144E0000C0BEF001C0BFF002C0C0F003C0C1F0CA
:10145E0000C0C8F001C0C9F002C0CAF003C0CBF092
:10146E00A00E0001CC6F1F0ECD6F000ECE6F090EB9
:10147E00CF6F000ED06F7DDD00C0C8F001C0C9F087
:10148E0002C0CAF003C0CBF0C2C0CCF0C3C0CDF0D6
:10149E00E4DC00C0BEF001C0BFF002C0C0F003C06B
:1014AE00C1F0C4532FE0FF0E046EFF0E056E7F0ECB
:1014BE00066EFF0E076EBEC000F0BFC001F0C0C0CA
:1014CE0002F0C1C003F0B2DC010ED8A4000E006E13
:1014DE00005205E0006A016A026A036A1BD0BEC0B0
:1014EE0004F0BFC005F0C0C006F0C1C007F0000E8A
:1014FE00006E000E016E000E026E7F0E036E60EC2B
:10150E0006F008D0BEC000F0BFC001F0C0C002F0AF
:06151E00C1C003F0120041
:04152400C584120068
:101528000001B46BF00EB115B26FB1C0B3F0B337B0
:10153800B391B337B391B337B391B337B391F00ED7
:10154800B31728DE9EEC05F04E0E0001BE6F6ADE72
:101558009EEC05F00001B451B211BE6FBE85BE8786
:1015680061DE9EEC05F0100E0D6E0D2EFED700000C
:101578000001B451B211BE6FBE8754DE9EEC05F077
:10158800210E0D6E0D2EFED70001B451B311BE6FA2
:10159800BE85BE8747DE9EEC05F0100E0D6E0D2E43
:1015A800FED700000001B451B311BE6FBE873ADE0A
:1015B8009EEC05F0B3DF0001B151010A0AE1030E08
:1015C8000C6E970E0D6E0D2EFED70C2EFCD700005C
:0415D80000001200FD
:1015DC00086A096A100E0C6E01340836093604507C
:1015EC00085E0550D8A0053C095ED8B007D0045061
:1015FC0008260550D8B0053C0926D890003601368F
:06160C000C2EEAD71200CB
:101612000001BD6B046A056A066A076AB5C000F07C
:10162200B6C001F0B7C002F0B8C003F005DC010E8D
:10163200D8A4000E006E005209E0000E006E000EEB
:10164200016E000E026E7F0E036EA6D0046A056A5A
:10165200066A076AB1C000F0B2C001F0B3C002F07E
:10166200B4C003F01DEC07F0010ED8A4000E006E0A
:10167200005205E0006A016A026A036A8DD0046AB8
:10168200056A066A076AB1C000F0B2C001F0B3C0D1
:1016920002F0B4C003F041EC03F0010ED8B0000E2A
:1016A200006E00522DE0B5C000F0B6C001F0B7C028
:1016B20002F0B8C003F099EC04F000C0B9F001C028
:1016C200BAF002C0BBF003C0BCF077EC04F0B5C0C6
:1016D20004F0B6C005F0B7C006F0B8C007F01DECC4
:1016E20007F0000ED8A4010E006E005205E0006A59
:1016F200016A026A036A50D0010EB915BD6FB37F49
:10170200B1C0BEF0B2C0BFF0B3C0C0F0B4C0C1F04F
:10171200C0DC00C0B1F001C0B2F002C0B3F003C03F
:10172200B4F0B5C004F0B6C005F0B7C006F0B8C05A
:1017320007F0E1EC03F000C0B1F001C0B2F002C06A
:10174200B3F003C0B4F000C0BEF001C0BFF002C0ED
:10175200C0F003C0C1F0CADD00C0B1F001C0B2F0F8
:1017620002C0B3F003C0B4F00001BD530DE0000E9F
:10177200B119006E000EB219016E800EB319026E1D
:10178200000EB419036E08D0B1C000F0B2C001F06F
:0A179200B3C002F0B4C003F012006F
:10179C00010E0001AD6F1CD0AA05006E0050800F29
:1017AC00B16FBCDE21D0AA05006E0050C00FB16F26
:1017BC00B5DE1AD0AA05006E0050940FB16FAEDEE4
:1017CC0013D0AA05006E0050D40FB16FA7DE0CD059
:1017DC00A951010AE1E0A951020AE5E0A951030A65
:1017EC00E9E0A951040AEDE0F00EAB15606FABC057
:1017FC00ACF0AC37AC91AC37AC91AC37AC91AC37FE
:10180C00AC91F00EAC17C4DC9EEC05F04E0E000152
:10181C00BE6F06DD9EEC05F00001AD516011BE6F90
:10182C00BE85BE87FDDC9EEC05F0100E0D6E0D2EF8
:10183C00FED700000001AD516011BE6FBE87F0DC19
:10184C009EEC05F0210E0D6E0D2EFED70001AD5154
:10185C00AC11BE6FBE85BE87E3DC9EEC05F0100EAE
:10186C000D6E0D2EFED700000001AD51AC11BE6FF8
:0C187C00BE87D6DC9EEC05F04FDE1200AB
:101888000001AD6BAE6B0B0EAF6F000EB06F000EAC
:10189800AE1902E1010EAD193DE0000EB16F000E68
:1018A800B26F000EB36F800EB46FAFC000F0B0C05F
:1018B80001F0ABEC05F000C0B5F001C0B6F002C015
:1018C800B7F003C0B8F0A1DE000E046E000E056E7E
:1018D800000E066E7F0E076E23EC01F035EC05F066
:1018E8000050A915026EAA510114036E000E0318C8
:1018F80002E1000E021809E0010EAD6F000EAE6F96
:10190800AFC000F0B0C001F005D0010EAF5F000E0F
:06191800B05BBDD7120018
:10191E000001606B050E605D0AE26051AB25E16E61
:10192E00000EAC21E26E200EE66E602BF3D76051F6
:10193E00AB25E16E000EAC21E26EE66A60076051E7
:10194E00AB25AD6F000EAC21AE6F0A0E046E000E0D
:10195E00056EA9C000F0AAC001F039DE08C000F083
:10196E0009C001F0300E0026ADC0E1FFAEC0E2FFAF
:10197E0000C0E6FF0A0E046E000E056EA9C000F050
:10198E00AAC001F024DE00C0A9F001C0AAF0000E2A
:10199E00011802E1000E001801E102D06007CFD756
:0219AE00120025
:1019B0000050086E0150006E016A026A036A0B6AE9
:1019C0000C6A960E036E0A6A00C001F008C000F0AF
:0A19D000086A026AA8EC03F0120096
:1019DA005F6ACEEC08F09EEC05F04E0E0001BE6F79
:1019EA0020DC9EEC05F0270E0C6EF50E0D6E0D2E0A
:1019FA00FED70C2EFCD7300E5F100001BE6FBE85DD
:101A0A00BE870FDC9EEC05F0100E0D6E0D2EFED774
:101A1A000000300E5F100001BE6FBE8702DC9EEC34
:101A2A0005F00D0E0C6EFB0E0D6E0D2EFED70C2E54
:101A3A00FCD700000000300E5F100001BE6FBE85AB
:101A4A00BE8716EC09F09EEC05F0100E0D6E0D2EF9
:101A5A00FED70000300E5F100001BE6FBE8716EC85
:101A6A0009F09EEC05F00D0E0C6EFB0E0D6E0D2EA0
:101A7A00FED70C2EFCD700000000300E5F100001CC
:101A8A00BE6FBE85BE8716EC09F09EEC05F0100EFF
:101A9A000D6E0D2EFED70000300E5F100001BE6FD6
:101AAA00BE8716EC09F09EEC05F00D0E0C6EFB0ECF
:101ABA000D6E0D2EFED70C2EFCD700000000200E56
:101ACA005F100001BE6FBE85BE8716EC09F09EEC62
:101ADA0005F0100E0D6E0D2EFED70000200E5F10C1
:101AEA000001BE6FBE8716EC09F09EEC05F015DD0D
:101AFA000D0E0C6EFB0E0D6E0D2EFED70C2EFCD7A6
:101B0A0000000000280E0001B16F09DD060EB16F5A
:041B1A0006DD1200D2
:101B1E003C0E00016D6F0B0E6E6F000E6F6F000EA0
:101B2E00706F9C0E576E110E586E000E596E000E91
:101B3E005A6EFF0E5B6EFF0E5C6E000E5D6E000E3B
:101B4E005E6EFF0E616FFF0E626FFF0E636FFF0E14
:101B5E00646F2C0E656F120E666FBE0E676F000EF1
:101B6E00686F240E696F150E6A6F000E6B6F000E94
:101B7E006C6F939093928A908A9293809382C79E71
:081B8E00C79C380EC66E120060
:101B96000900F5CFE6FF0006FBE10106F9E11200B8
:101BA6009BC0A7F09CC0A8F00001A737A791A83753
:101BB600A737A791A837A737A791A837A737A7911F
:101BC600A837070E006E9DC0A3F09EC0A4F000507B
:101BD60005E0A337A391A437FF0FFAD7196A1A6A4B
:101BE600A56BA66B800EA619006E800E005C02E146
:101BF600050EA55D3BE2000EB16F000EB26F000E42
:101C0600B36F800EB46F9FC000F0A0C001F0CDDEB0
:101C160000C0B5F001C0B6F002C0B7F003C0B8F01E
:101C2600F5DC000E046E000E056E000E066E7F0ECD
:101C3600076E23EC01F035EC05F00050A715026E97
:101C4600A8510114036EA3510016A45101160250A7
:101C5600001A0350011A0050191201501A12010EEF
:101C66009F5F000EA05BA54BA62BBCD719C0A9F0A1
:101C76001AC0AAF09FC0ABF0A0C0ACF002DE00C054
:101C8600A1F001C0A2F0800E0118026E800E025C67
:101C960002E1050E005C05E2A1C000F0A2C001F061
:101CA6001AD01950A7131A50A813A1C09FF0A2C0AA
:101CB600A0F0040EA15D006E000EA259016E9DC03B
:101CC600A3F09EC0A4F0005005E0A337A391A4376B
:081CD600FF0FFAD783D71200BB
:101CDE000001A16BA26B9BC0A3F09CC0A4F0800E70
:101CEE009C19006E800E005C02E1000E9B5D0BE203
:101CFE00010EA16F000EA26F9B510008A36F9CC036
:101D0E00A4F0000EA457A3C0A9F0A4C0AAF09DC0D1
:101D1E00ABF09EC0ACF0FCDD060E9F6F000EA06F08
:101D2E00000E006EA051005C02E19F51000819E206
:101D3E009F519D25E16EA0519E21E26E010E9F5D89
:101D4E00006E000EA059016E00509D25E96E0150E7
:101D5E009E21EA6EEECFE6FF010E9F5F000EA05BA6
:101D6E00DFD79DC0E1FF9EC0E2FF200EE66EA151BF
:101D7E00A2111AE09F6BA06B9F519D25E96EA05199
:101D8E009E21EA6EEE50200A03E19F4BA02BF4D762
:101D9E00010E9F5F000EA05B9F519D25E16EA0512D
:0A1DAE009E21E26E2D0EE66E12007B
:101DB8009DC0E9FF9EC0EAFFEE5210E09BC0A9F06B
:101DC8009CC0AAF09DC0E9FF9EC0EAFFEECFABF031
:0E1DD800E1DC00019C2B9D4B9E2BEAD71200F4
:101DE600F6EC0FF00001956B966B976B986BFF0EF8
:101DF600926EC10EC16E956A0A0EC86E8DDEEADD60
:101E06000C0EB16F94EC0AF0010EB16F94EC0AF06F
:101E1600010E9B6F010E9C6F390E9D6F000E9E6F1B
:101E2600C8DF020E00019B6F010E9C6F260E9D6F90
:101E3600000E9E6FBEDF030E00019B6F010E9C6FAE
:101E46001B0E9D6F000E9E6FB4DF040E00019B6F8C
:101E5600010E9C6F4A0E9D6F000E9E6FAADF0B0E41
:101E66000B6E260E0C6E5D0E0D6E0D2EFED70C2E15
:101E7600FCD70B2EFAD700000000010E0001B16F4F
:101E860094EC0AF00001DE0E9511026E96510009DF
:101E9600036E02C095F003C096F0130E9711006E04
:101EA60098510009016E00C097F001C098F002C079
:101EB6009BF003C09CF000C09DF001C09EF00B0E8D
:101EC6009F6F000EA06F6CDE00C099F001C09AF003
:101ED60019C09BF01AC09CF0710E9D6F000E9E6F8C
:101EE600FBDE95C09BF096C09CF07D0E9D6F000EAC
:101EF6009E6FF2DE99C09BF09AC09CF0890E9D6F92
:101F0600000E9E6FE9DE010E9B6F010E9C6F440E64
:101F16009D6F000E9E6F4DDF020E00019B6F010E3E
:101F26009C6F710E9D6F000E9E6F43DF030E0001C6
:101F36009B6F010E9C6F7D0E9D6F000E9E6F39DFAD
:101F4600040E00019B6F010E9C6F890E9D6F000EA3
:0C1F56009E6F2FDF19C083FF95D7FFD7C7
:101FEC0010EE15F03E0E006E010E016E620EF66ED6
:0E1FFC001F0EF76E000EF86ECBEC0DF012000B
:041F6200000000007B
:021F6600000079
:0B1F6800504943313846343535300015
:101F73005665726966696363696F6E2064652043A1
:031F8300524300C6
:0B1F86004249454E56454E49444F006D
:061F9100486F6C612000A6
:091F97005765636F732078440064
:101FA0000000007F1872317EF0FD757C4758637A1F
:101FB00058951D7882C42E75A8782172EF93006F12
:081FC000A092276B465615683C
:101FC800FFE65B5DC4FF7F7E80EFFF7D90E1297DAA
:101FD800EC82F67C82AD2B7C0E3CC37B87D1137AD6
:041FE8004178D377F2
:020000040030CA
:0E000000000C191EFF8181FF0FC00FE00F40A2
:00000001FF
